:020000040800F2
:1000000000070020F9010008091D0008551B000821
:10001000051D0008F10200088D1D00080000000009
:10002000000000000000000000000000111D00089A
:10003000F5020008000000000D1D0008151D000855
:10004000130200081302000813020008130200083C
:10005000130200081302000813020008130200082C
:10006000130200081302000813020008130200081C
:10007000130200081302000813020008130200080C
:1000800013020008130200081302000813020008FC
:1000900013020008130200081302000813020008EC
:1000A00013020008130200081302000813020008DC
:1000B00013020008691D000813020008130200085B
:1000C00013020008130200081302000813020008BC
:1000D00013020008811D0008130200081302000823
:1000E000130200081302000813020008130200089C
:1000F000130200081302000813020008130200088C
:10010000130200081302000813020008130200087B
:10011000130200081302000813020008130200086B
:10012000130200081302000813020008130200085B
:1001300000F002F800F050F814A696E8000CB24463
:10014000B344DA4501D100F047F8BAE80F000FA632
:1001500096E83000A5EB040504EB0607AAEB0704BC
:10016000A7F101074FEA15154FEA3414A4F1010471
:10017000AC4201D300F030F813F0010F18BFFB1AA6
:1001800043F0010300F001F8DBE71847E42000002A
:1001900004210000103A24BF78C878C1FAD8520769
:1001A00024BF30C830C144BF04680C6070470000F1
:1001B000704700000023002400250026103A28BFC5
:1001C00078C1FBD8520728BF30C148BF0B607047C9
:1001D0001FB51FBD10B510BD00F050F81146FFF758
:1001E000F7FF01F0D5FD00F06EF803B4FFF7F2FF62
:1001F00003BC00F075F80000094880470948004733
:10020000FEE7FEE7FEE7FEE7FEE7FEE7FEE7FEE7C6
:10021000FEE7FEE704480549054A064B7047000023
:10022000191D00083101000800010020000700200E
:10023000000300200003002010B5431C02E010F86A
:10024000011B71B18107FAD14FF0013202C88C1A3B
:100250008C4314EAC211F9D0C01A0A0603D0C01E9A
:1002600010BDC01A10BD0A0401D0801E10BD0902C5
:10027000FCD0401E10BD704770477047754600F0B7
:100280002BF8AE4605006946534620F00700854628
:1002900018B020B5FFF7BEFFBDE820404FF00006C4
:1002A0004FF000074FF000084FF0000BAC46ACE8F1
:1002B000C009ACE8C009ACE8C009ACE8C00921F04D
:1002C00007018D46704710B50446AFF30080204605
:1002D000BDE81040FFF789BF0048704710000020BC
:1002E00001491820ABBEFEE726000200704700005F
:1002F000FEE7000070470000EFF3108072B600BF09
:10030000FEE7000090F82110022927D1026840F290
:10031000040C1368C4F2020C23F00E03136013687C
:100320000CF17C018A4223F0010111601AD940F2DC
:100330000841C4F202018A4250D040F21C41C4F28A
:1003400002018A4242D040F23041C4F202018A42A4
:1003500048D14FF48073CCF800345CE00421816311
:10036000012070474321C4F202018A420EDD6B2155
:10037000C4F202018A421BDC4421C4F202018A4217
:100380003ED05821C4F202018A4223E00821C4F27F
:1003900002018A4232D01C21C4F202018A4237D0C3
:1003A0003021C4F202018A4214D14FF4807230E04D
:1003B0006C21C4F202018A4226D08021C4F20201DB
:1003C0008A4207D14FF0807223E000BF1023CCF89F
:1003D000003420E04FF480321BE000BF0123CCF852
:1003E000003418E00CF588614FF480338A4208BF6E
:1003F0004FF48053CCF800340DE000BF012208E038
:100400004FF4805205E000BF4FF4801201E000BFBE
:100410001022CCF80020416B4FF480720029028436
:1004200004BF0020704780B58847002080BD0000D1
:10043000B0B5044600F00AF9054640F20000C2F2E9
:1004400000000078611C18BF044400BF00F0FEF8F3
:10045000401BA042FAD3B0BD2DE9F04F82B00E6828
:10046000002E00F0E980A0F1804241F6004540F204
:100470000043A2F58432C4F201050624C4F201034C
:100480004FEAB227A84208BF05244FF0000E4FF0F4
:1004900001080F254FF0000A4FF0000B052F38BF61
:1004A0004FEAB224009408E00E680AF1010A36FA15
:1004B0000AF20EF1040E00F0BF8008FA0AFC16EAF8
:1004C0000C09F1D04E684FF6FF72C1F2100296424D
:1004D00012DC122E56D8DFE806F0350B4D49555583
:1004E000555555555555555555555545510000BF10
:1004F000D1F80CB046E000BF4FF6FF72C1F2210206
:1005000096420FDC0022C1F2110296421AD000225C
:10051000C1F21202964215D00022C1F22102964287
:1005200010D02FE00022C1F2220296420AD000220F
:10053000C1F23102964205D00022C1F23202964247
:1005400020D100BF8A684AB1012A14BFC0F814C084
:10055000C0F810C04FF0080B14E000BF4FF0040BC0
:1005600010E000BFCA6802F1040B0BE04FF0000B73
:1005700008E000BFCA6802F1080B03E0CA6802F194
:100580000C0B00BF02467446B9F5807F24BF0432CD
:10059000203C166805FA04F726EA07070BFA04F66A
:1005A00037431760CA79D2067FF57EAF41F218074C
:1005B000C4F202073A684FF6084542F001023A6079
:1005C0003A68CFF6FF7502F001020192019A2AF013
:1005D00003021A440F2457590EF00C06B440A743E7
:1005E000009C04FA06F6374357514E680F25F20374
:1005F0001A6854BF22EA090242EA09021A605A68DC
:10060000B70354BF22EA090242EA09025A60F7021C
:100610009A6854BF22EA090242EA0902B70240F28C
:100620000C479A60C4F201073A6854BF22EA0902F3
:1006300042EA09023A6037E702B0BDE8F08F0000F5
:10064000002A08BF090401617047000040F2F80069
:10065000C2F200000068704740F2000040F2F8016A
:10066000C2F20000C2F2000100780A68104408607B
:100670007047000080B542F20000C4F20200016839
:1006800041F010010160032000F08CF80F2000F011
:1006900005F800F027F8002080BD000070B540F29A
:1006A0000006C2F2000640F208013278C2F20001F0
:1006B0004FF47A730968B3FBF2F20446B1FBF2F12E
:1006C000084600F085FB0F2C4FF0010508D838B91B
:1006D0004FF0FF3021460022002500F037F874600B
:1006E000284670BD82B041F21800C4F202000168D1
:1006F000022241F001010160016801F00101019154
:100700000199416841F080514160406800F080509B
:10071000009000980420C4F20100016862F31A619D
:10072000016002B070470000002848BF704700F029
:100730001F01012202FA01F11C2202EAD0004EF24E
:100740000012CEF2000281507047000010B54EF644
:100750000C5CCEF2000CDCF80030C3F3022E8EF0FD
:100760000704042C28BF0424BEF103034FF0FF3E0E
:100770000EFA04F438BF0023A14399400EFA03F3A4
:100780009A43114300F00F0200F160430901043A5B
:1007900003F564436244002848BF02F10C0319705A
:1007A00010BD00004EF60C51CEF200010A684FF663
:1007B000FF031A4060F30A2242F0806040F0FD70AF
:1007C00008607047002804BF012070472DE9F043FE
:1007D00081B042F20008C4F202080446D8F80000D2
:1007E0000D4600F0070081420CD9D8F8000020F037
:1007F00007002843C8F80000D8F8000000F0070000
:10080000A8426CD1206841F204098107C4F20209B0
:1008100017D5410705D5D9F8001041F4E061C9F8B2
:100820000010010705D5D9F8001041F46051C9F84E
:100830000010D9F80010A26821F0F0011143C9F8A6
:100840000010C00742D1D8F8000000F00700854230
:100850000CD2D8F8000020F007002843C8F80000A8
:10086000D8F8000000F00700A84238D120684107FE
:1008700007D5D9F80010E26821F4E0611143C9F806
:100880000010000708D5D9F80000216920F4605055
:1008900040EAC100C9F80000D9F8002002F00C00BD
:1008A000082841F20020C0F27A004DD142F25E23C6
:1008B000C2F38341C0F60003595CD20338D440F63A
:1008C0000010C0F23D0048433EE000BF606859F8A8
:1008D000041C022808D0012826D1890306D401204F
:1008E00001B0BDE8F08300BF8901F8D5D9F8001048
:1008F00021F003010843C9F80000FFF7A7FE0646F0
:1009000041F28837D9F80000616800F00C00B0EBC4
:10091000810F98D0FFF79AFE801BB842F2D90320CE
:1009200001B0BDE8F08300BF8907D8D5DEE700BF7E
:10093000D9F8002042F24423C2F34042C0F600033B
:100940009A5C4843B0FBF2F0D9F8001042F246221C
:10095000C1F30311C0F60002515C40F2080220FA14
:1009600001F140F20400C2F200000068C2F200028D
:100970001160FFF793FE002001B0BDE8F083000096
:1009800040F2080041F20401C2F20000C4F2020188
:100990000068096842F25622C1F30221C0F6000243
:1009A000515CC8407047000040F2080041F2040169
:1009B000C2F20000C4F202010068096842F2562245
:1009C000C1F3C221C0F60002515CC840704700006C
:1009D000002804BF012070472DE9F04182B0044691
:1009E000007841F20006C007C4F202060CD070681D
:1009F00000F00C00042840F081803068800303D5AB
:100A00006068002800F04681207880071BD5706858
:100A100010F00C0F09D0706800F00C00082840F0AE
:100A200087807068C00300F183803068800703D539
:100A30002069012840F02E813068616920F0F800BB
:100A400040EAC10030602078000713D420784007C6
:100A50002CD4E569002D00F01881706800F00C00BE
:100A6000082840F0A780012D40F00481012002B049
:100A7000BDE8F081A069002800F084800020C4F265
:100A800042200121C0F88014FFF7E0FD054600BFB9
:100A9000706A800700F1B280FFF7D8FD401B022882
:100AA000F6D9032002B0BDE8F08100BFF0695FEA2B
:100AB000C00808D4F06940F08050F061F06900F09F
:100AC00080500090009847F20007C4F20007386891
:100AD000C00549D4386840F480703860FFF7B6FD2F
:100AE000054600BF3868C0053ED4FFF7AFFD401B88
:100AF0006428F7D9032002B0BDE8F081706800F0E7
:100B00000C00082803D17068C0033FF576AF616818
:100B10003068002900F00C81B1F5A02F00F00081B1
:100B2000B1F5803F40F01A8140F480301CE100BFF5
:100B30002069002840F20000C4F2422000F08880C2
:100B400001210160FFF782FD054600BF3068800784
:100B50003FF572AFFFF77AFD401B0228F6D903205C
:100B600002B0BDE8F08100BFE168306A002900F002
:100B70009D80052900F09280012940F0AF8040F06F
:100B80000100B1E00020C4F242200021C0F880142E
:100B9000FFF75CFD054600BF706A80077FF556AF22
:100BA000FFF754FD401B0228F6D9032002B0BDE830
:100BB000F08100BF0027C4F2422700203866FFF70B
:100BC00045FD022D05460DD13068800140F1DE80E3
:100BD000FFF73CFD401B02284FF00300F4D902B0A0
:100BE000BDE8F081306880014FD5FFF72FFD401B35
:100BF00002284FF00300F5D9F1E700BF40F20800EA
:100C0000C2F20000006844F6D351C1F26201A0FBB9
:100C10000101480A019000BF00BF0198411E002851
:100C200001913FF413AF00BF0198411E00280191CC
:100C30003FF40CAF00BF0198411E002801913FF422
:100C400005AF00BF0198411E00280191E4D1FDE6E7
:100C500000210160FFF7FAFC054600BF30688007FD
:100C60007FF5F1AEFFF7F2FC401B02284FF00300C6
:100C7000F4D9B4E77068216A00F480328A4209D15D
:100C8000616A00F47010884204D1002002B0BDE80F
:100C9000F08100BF012002B0BDE8F08140F0040007
:100CA0003062306A40F001001EE000BF20F0010019
:100CB0003062306A20F004003062FFF7C7FC05465E
:100CC00041F28837306A800720D5FFF7BFFC401B10
:100CD000B8424FF00300F5D981E700BF20F00100D2
:100CE0003062306A20F004003062FFF7AFFC054646
:100CF00041F28837306A800708D4FFF7A7FC401B11
:100D0000B842F7D9032002B0BDE8F081B8F1000F76
:100D10003FF59FAEF06920F08050F06199E600BF8A
:100D200040F480203060306840F480301CE000BF28
:100D300020F480303060306820F480203060FFF78D
:100D400085FC0546306880037FF55EAEFFF77EFCCC
:100D5000401B64284FF00300F4D940E720F48030B2
:100D60003060306820F480203060FFF76FFC05466B
:100D7000306880033FF548AEFFF768FC401B6428ED
:100D8000F6D9032002B0BDE8F08100BF206AB0F5BB
:100D9000803F05D17168A26821F400311143716070
:100DA0007168626A21F47411114308437060012074
:100DB0003866FFF74BFC0446306880013FF565AFAD
:100DC000FFF744FC001B02284FF00300F4D906E7AC
:100DD000411E0020B0EB116F1CBF012070474EF286
:100DE0001002CEF2000251604EF62351CEF2000105
:100DF000F0230B700721906011607047704700006E
:100E00007047000090F83C20012A4FF0020219D0F0
:100E100080B580F83D2002685368D2F808C091E898
:100E2000024023F0700319432CF0800343EA0E03C1
:100E3000516093600121002280F83D1080F83C2031
:100E4000BDE88040104670477047000010B501684B
:100E500004460869800744BFC8685FEA807039D4D7
:100E60000869400744BFC8685FEA40703ED408691B
:100E7000000744BFC8685FEA007045D40869C0062F
:100E800044BFC8685FEAC0604AD40869C0071CBF95
:100E9000C8685FEAC07051D10869000644BFC868DD
:100EA0005FEA006052D40869400644BFC8685FEA40
:100EB000406053D40869800646BFC8685FEA806016
:100EC00010BD6FF0200220460A61BDE81040FFF718
:100ED00097BF00BF6FF0020008610120207788698A
:100EE000800743D02046FFF7AFFF45E06FF00400D6
:100EF000086102202077886910F4407F40D02046A6
:100F0000FFF7A2FF42E000BF6FF008000861042075
:100F10002077C86980073DD02046FFF795FF3FE066
:100F20006FF01000086108202077C86910F4407F36
:100F30003AD02046FFF788FF3CE000BF6FF0010089
:100F40000861204600F078FA2168A5E76FF080007C
:100F500008612046FFF752FF2168A4E76FF04000C8
:100F60000861204600F06AFA2168A3E7204600F0F5
:100F700025F8204600F0F0F92168002020776FE77F
:100F8000204600F01BF8204600F0E6F9216800201A
:100F900020776CE7204600F011F8204600F0DCF9DD
:100FA00021680020207769E7204600F007F82046F6
:100FB00000F0D2F921680020207766E77047000032
:100FC00090F83C30012B4FF0020300F023814FEAF0
:100FD000B202032A80F83D3000F216812DE9F0417B
:100FE000DFE802F002C64690036843F200461A6A40
:100FF000C4F2010622F001021A621D6A1A465C68F8
:1010000052F818CF8F68D1F800E025F00205B342FE
:1010100045EA070505D042F60047C4F20107BB4286
:1010200005D1CF6825F00C0527F004073D43B342F6
:1010300005D042F60046C4F20106B34205D1D1E91B
:10104000056724F4407434433C432CF0730747EAAB
:101050000E075C609F614F6809695F631D629F694D
:1010600047F008079F619F6927F004079F61C6E06A
:10107000036843F200461A6AC4F2010622F4807241
:101080001A621D6A1A46D3F804C052F81CEF8F6822
:10109000D1F8008025F40075B34245EA072505D054
:1010A00042F60047C4F20107BB4208D1CF6840F2C4
:1010B000FF443F0225F4406527EA04042543B34278
:1010C00005D042F60044C4F20104A34206D1D1E99E
:1010D00005462CF44057264347EA061C2EF07307BA
:1010E00047EA0807C3F804C0DF614F680969DF6396
:1010F0001D62DF6947F00807DF61DF6927F0040739
:10110000DF617CE0036843F200471A6AC4F201071A
:1011100022F480521A621A46D3F820C05D6852F851
:101120001C4FD1F800E08E68BB4205D042F6004764
:10113000C4F20107BB4204D14F6925F4804545EA5A
:1011400087152CF4005747EA063724F4E64646EAAA
:101150000E265D60DE614E6809691E641F62DF69EC
:1011600047F40067DF61DF6927F48067DF6145E0EE
:10117000036843F200481A6AC4F2010822F0100220
:101180001A621D6A1A465C6852F818CF8F68D1F847
:1011900000E025F02005434545EA071505D042F655
:1011A0000047C4F20107BB4207D1CF686FF0400689
:1011B00025F0C00506EA07163543434505D042F63B
:1011C0000046C4F20106B34206D1D1E9056724F412
:1011D00040643E4344EA86042CF4E64747EA0E277F
:1011E0005C609F614F6809699F631D629F6947F456
:1011F00000679F619F6927F480679F6109021368F8
:1012000019431160BDE8F0410121002380F83D1031
:1012100080F83C3018467047002804BF0120704712
:1012200010B590F83D1031B9002180F83C1004460B
:1012300000F070F82046022180F83D10016840F669
:10124000FF320B68C4F2000240F6004E43F2004C3D
:101250009142C4F2000EC4F2010C21DCB1F1804FC6
:1012600028D040F20044C4F20004A14222D040F64B
:101270000004C4F20004A1421CD0914220DCB1F170
:10128000804F27D040F20042C4F20002914221D0A8
:1012900040F60002C4F2000291421BD01EE000BFE3
:1012A000714507D0614505D042F60044C4F20104FF
:1012B000A142E2D1846823F0700323439142DEDD32
:1012C000714507D0614505D042F60042C4F20102E3
:1012D000914203D1026923F440731343846923F0DC
:1012E0008002D0F804E0C368224361450A60CB6203
:1012F000C1F828E005D042F60042C4F20102914252
:1013000001D142690A6301224A6180F83D20002030
:1013100010BD0000006840F20041C4F200018842A4
:1013200018BF704780B582B041F21C00C4F20200C1
:101330000168002241F0020101600068002100F014
:101340000200019001981D20FFF700FA1D2002B055
:10135000BDE88040FFF7E8B970470000006801F081
:101360001F010122036A02FA01F123EA010202626B
:10137000026A114343F20042C4F201029042016248
:1013800005D042F60041C4F20101884203D1416C0C
:1013900041F400414164816801F00701062903D04E
:1013A000016841F0010101600020704702460068B9
:1013B00001F01F014FF0010C036A0CFA01F123EA5E
:1013C0000101016243F20043016AC4F20103984241
:1013D000016205D042F60041C4F20101884209D100
:1013E000016A41F21113194204D1016A40F24443E7
:1013F000194209D0016A41F2111319420DD001219D
:10140000002082F83D107047416C21F40041416496
:10141000016A41F211131942F1D1016A40F24443C9
:101420001942ECD1016821F0010101600121002085
:1014300082F83D10704700007047000070470000C0
:1014400070470000B0B501680A68CC684B6902F0CB
:101450002F05202D04F0200512D18DB190F83A20EF
:10146000222A40F017818268B2F5805F3ED103697D
:10147000826A4968002B61D0C9B222F8011B61E081
:101480005FEA027C1EBF03F0010E04F4907313EBBD
:101490000E0337D1130617D514F0800314D090F83B
:1014A0003920212A40F0F6808368026AB3F5805F14
:1014B00030D113886FF35F234B600369002B14BF97
:1014C00001320232026229E0520640F1E38014F058
:1014D000400208BFB0BDCA6822F04002CA602021A5
:1014E00080F83910BDE8B04000F032BB02694968AD
:1014F000002A826A18BF01F07F01531C83621170B9
:1015000021E000BFD30718BF14F4807336D153070E
:101510003AD440E0531C036212784A60C28C013A0C
:101520001304C28440F0B680C86820F08000C86010
:10153000C86840F04000C860B0BD00BF6FF35F21D5
:1015400022F8021B8262C18D01390A04C18540F074
:10155000A1800168CA6822F02002CA60CA6822F429
:101560008072CA604A6922F001024A61202180F833
:101570003A10BDE8B04000F07BB900BFC36B43F048
:101580000103C363530706D5BEF1000F03D0C36B3D
:1015900043F00203C363930706D5BEF1000F03D0E7
:1015A000C36B43F00403C363BCF1000F06D5BEF167
:1015B000000F03D0C36B43F00803C363C36B002B5E
:1015C00068D092063BD5D5B390F83A20222A36D17E
:1015D0008268B2F5805F07D10369826A49687BB18E
:1015E000C9B222F8011B0FE002694968002A826A29
:1015F00018BF01F07F01531C8362117005E000BF2A
:101600006FF35F2122F8021B8262C18D4A1EC285E0
:101610000168120413D1CA68044622F02002CA608D
:10162000CA6822F48072CA604A6922F001024A61E3
:10163000202180F83A1000F01BF9216820464A6901
:10164000C36B02F0400203F00803D21824D0CA682A
:1016500022F49072CA604A6922F001024A61202293
:1016600080F83A204A6952061CD54A6922F04002A5
:101670004A61416BB1B141F67552C0F600020446B1
:1016800008464A63FEF73EFE20B1606B416BBDE841
:10169000B0400847B0BD00BF0446FFF7D1FE0020B0
:1016A000E063B0BDBDE8B040FFF7CABE002804BF8C
:1016B0000120704710B5044690F8390028B9002081
:1016C00084F83800204600F061F8242084F83900BE
:1016D0002068D4E90212C36823F40053C36003698D
:1016E00023F440531A430261D4E904231143C2682E
:1016F000194341F20C639A431143C1604169A269E5
:1017000021F44071114343F60002C4F201029042F9
:10171000416103D0FFF734F902E000BFFFF744F95D
:10172000D4E90023192148439900B0FBF1F048F2B5
:101730001F5CC5F2EB1CA0FB0C314FF69C734909F2
:10174000C0F6FF7301FB0300322303EB0010A0FB84
:101750000C03F02000EA531000EB0110C3F3431117
:10176000084490601069202120F490401061506975
:1017700020F02A005061D06840F40050D060002072
:10178000E06384F8391084F83A1010BD70B586B063
:1017900040F60004C4F20104006804F5405100263C
:1017A00088420596CDE90366029601D006B070BD69
:1017B00041F21800C4F20200016802AD41F4804118
:1017C0000160016801F4804101910199016841F0D3
:1017D000040101600068294600F0040001900198AE
:1017E0004FF40070029002200390032005902046E1
:1017F000FEF732FE4FF48060CDE90206204629460E
:101800000496FEF729FE252000210022FEF79EFF08
:101810002520FEF789FF06B070BD0000034690F852
:101820003A0020280AD100294FF0010018BF002AF1
:1018300000D1704793F83800012801D10220704789
:101840009962002022219A85DA85D86383F83A10BC
:10185000196883F83800CA6842F48072CA604A691D
:1018600042F001024A61CA6842F02002CA60704731
:10187000B0B5006843F60001C4F20101884240F0AF
:10188000958040F2F400C2F200000078A0F16201FD
:10189000112921D8DFE801F00A8A8A8A368A8A8AE1
:1018A0008A8A4A8A8A8A8A8A586800BF40F2700403
:1018B000C2F200041E2020703320A07000206FF0C0
:1018C000320100F0E5FA20784142012000F0E0FA10
:1018D000022060706AE000BF2B284FD02D2865D110
:1018E00040F27004C2F200042078A27861780A38CD
:1018F0002070A2F10A000229A0704DD1C0B241426D
:1019000000202CE040F27004C2F200041E2020707F
:101910003320A0700020332100F0BAFA2178012092
:10192000012500F0B5FA657040E000BF40F2700498
:10193000C2F2000440F21E3020803320A07000204C
:101940006FF032012CE000BF40F27004C2F20004DC
:1019500040F21E4020803320A0700020332100F090
:1019600097FA207841421EE040F27004C2F200046F
:1019700000202080A070002112E000BF40F270041F
:10198000C2F200042078A27861780A30207002F157
:101990000A000229A070B1D0012907D1C1B20020EC
:1019A00000F076FA2178012000F072FA40F2B400DB
:1019B00040F2F401C2F20000C2F200010122BDE8CF
:1019C000B040FFF72BBF00002DE9F041044690F82E
:1019D000390020280CD10E4600294FF0010018BF15
:1019E000002A01D1BDE8F08194F83800012803D124
:1019F0000220BDE8F08100BF012084F838000020FB
:101A0000E06321201D4684F839001746FEF71EFECC
:101A1000A784E784E18C074600295FD005F101081F
:101A200006E000BF16F8011B4160E18C002956D08A
:101A3000E08C0138E0842068A1680268B1F5805F1D
:101A40004FEA02611CD100290DD4B8F1000F29D052
:101A5000002D6AD0FEF7FAFDC11B2068A94264D8A8
:101A600001680906F6D531886FF35F21416021696D
:101A7000002914BF01360236E18C0029D8D12EE0AE
:101A80000029CFD4B8F1000F1AD0002D4DD000BFDF
:101A9000FEF7DCFDC11B2068A94246D80168090693
:101AA000F6D5BFE701680906DDD4016809065CBF09
:101AB00001685FEA0161D6D401680906F2D5D2E770
:101AC00001680906AED4016809065CBF01685FEAD7
:101AD0000161A7D401680906F2D5A3E7206801686F
:101AE00049060FD40DB3691C19D10168490609D400
:101AF000016849065CBF01685FEA416102D4016880
:101B00004906F2D5202084F839000020002184F80D
:101B10003810BDE8F08100BF00684006F2D4FEF73F
:101B200095FDC11B2068A942F6D9C16821F4D07186
:101B3000C160416921F001014161202084F8390030
:101B400084F83A000320002184F83810BDE8F081C1
:101B500070470000FEE7000070B586B0002541F236
:101B60001800CDE90455CDE90255C4F20200016820
:101B700040F6004441F0100101600168C4F2010424
:101B800001F01001019101990168002241F020014A
:101B9000016001684FF4704601F020010191019944
:101BA000016841F004010160016801F00401019144
:101BB0000199016841F00801016000684FF470412B
:101BC00000F00800019001982046FEF739FD012041
:101BD000CDE903050220059002A920460296FEF7F2
:101BE0003BFC06B070BD0000B0B590B040F2740090
:101BF00040F200450021C2F2000040F2E733C4F297
:101C00000005CDE90811CDE90611CDE904114722FF
:101C1000C0E9021301618021C0E900528161FFF730
:101C2000FBFA002818BFFEF767FB40F27400C2F20F
:101C3000000008A9FFF7E6F8002818BFFEF75CFBD4
:101C4000602001900020CDE90200059040F2740070
:101C5000C2F2000001A90022FFF7B2F9002818BF64
:101C6000FEF74AFB40F27404C2F2000401A92046C8
:101C70000422FFF7A5F9002818BFFEF73DFB2168F5
:101C80000020A942CDE90E000D900C9002D010B0BA
:101C9000B0BD00BF41F21800C4F20200016841F07B
:101CA0000401016000680CA900F004000B900B987F
:101CB000C0200C9002200D900F9005F58230FEF7A9
:101CC000CBFB10B0B0BD000080B540F2B40043F6CD
:101CD0000001C2F20000C4F2010100234FF00C0C1D
:101CE0004FF4165280E80E00C0E90333C0E905C383
:101CF000C361FFF7DBFC002808BF80BDBDE8804062
:101D0000FEF7FABAFEE70000FEE7000070470000A9
:101D100070470000FEF7A0BC41F20000C4F20200D0
:101D20000168002241F0010101604168CFF6FF0225
:101D30001140416001684FF6FF72CFF6F662114024
:101D40000160016821F480210160416821F4FE01F5
:101D500041604FF41F0181604EF60850CEF2000042
:101D60004FF000610160704740F27400C2F2000061
:101D7000FFF76CB8406A0021C185C184FFF760BBE2
:101D800040F2B400C2F20000FFF75CBBFEE70000C7
:101D900090B0FEF76FFC00240120CDE90B44CDE9A3
:101DA000094406900A904FF4E0104FF48031022568
:101DB0000F9006A8CDE90714CDE90D51FEF708FEF6
:101DC00020B1EFF3108072B6FEE700BF0F20CDE91F
:101DD00001054FF48060CDE9040401A802210394B9
:101DE000FEF7F0FC20B1EFF3108072B6FEE700BF03
:101DF000FFF7B2FEFFF7F8FEFFF766FF00F01AF8F4
:101E000040F2B40040F2F401C2F20000C2F200015C
:101E10000122FFF703FD03A000F0C6F80520FEF73E
:101E200007FBFBE773797374656D207265616479F4
:101E30000D0A0000B0B540F60044C4F2010420468B
:101E40004FF4805100220025FEF7FAFB20464FF4A4
:101E500000510022FEF7F4FB20464FF4804100229F
:101E6000FEF7EEFB20464FF400410022FEF7E8FBB0
:101E700040F27404C2F2000420460021FFF76EFA1B
:101E800020460421FFF76AFA206845638563B0BDE8
:101E90002DE9F04381B040F27408C2F200080D460B
:101EA000D8F800108146CE6A2846002D48BF684207
:101EB00000F0B7F841F27B4247F6E123C4F2AE727C
:101EC000C3F6847300F0C0F8044630460F4600F0B5
:101ED000A8F802460B462046394600F0B5F800F057
:101EE00073F8B9F1010F064618D0B9F1000F2BD1E4
:101EF00040F2740040F60047C2F200000021C4F234
:101F00000107FFF753FA012D22DB38464FF4005149
:101F10000122FEF795FB002523E000BF40F274008C
:101F200040F60047C2F200000421C4F20107FFF7A7
:101F30003DFA012D1EDB38464FF400410122FEF729
:101F40007FFB00251FE000BF01B0BDE8F08300BFAC
:101F500038464FF400510022002D18BF0125FEF72E
:101F60006FFB38464FF480512A46FEF769FB00218B
:101F7000342210E038464FF400410022002D18BFF3
:101F80000125FEF75DFB38464FF480412A46FEF7F7
:101F900057FB04213822D8F8003040469E5001B04B
:101FA000BDE8F043FFF7DAB910B50446FEF744F98F
:101FB00082B240F2B400C2F2000021464FF0FF337B
:101FC000BDE81040FFF700BD4FEA1153A3F5806351
:101FD000D3F11E03A8BFD3F1200C08DB4FF0004261
:101FE00042EAC12252EA505232FA03F070470942E3
:101FF0000BD4102BC4BF0020704703F5787CBCF1D4
:10200000FF3F05D04FF0FF3070474FF000007047A2
:1020100070B500F0C3F800BF4992248000207047DB
:10202000F0E7B0FA80F310FA03F10AD0C3F11D0310
:1020300003F580634FEA03524FEA415002EBD1218E
:1020400070474FF00000704770B5DFF848C11CEAD8
:10205000111E1EBF1CEA13159EEA0C0F95EA0C0F09
:1020600000F06F8081EA03044EEAD47EAE4421EA98
:102070004C1123EA4C1341F4801143F48013AEF168
:102080007F7EA1FB024CA0FB0365361955EB0C05C6
:10209000A1FB034C4CF10003A0FB021C16EB0C0649
:1020A000654153F10003094218BF46F0010613F4DD
:1020B000007F0BD14FEA03314FEA053041EA155159
:1020C00040EA165034036FF003020AE04FEAC321DE
:1020D0004FEAC52041EA555140EA5650F4026FF0EC
:1020E000020202EB2E4201EB025585EACE710AD0C4
:1020F0005FEA440C18BF24F0004450F1000041F1A5
:10210000000120EAD47040F2FE7C624500D270BD2E
:10211000A84214BF4FF080444FF04044002E08BF47
:102120000024BEF1806FA8BFA1F1C041BDE870409E
:1021300080F2828001F1C04101F000414FF00000C7
:1021400070470CEA13159EEA0C0F18BF95EA0C0FA6
:1021500006D081EA030E4FF000000EF0004170BD82
:1021600000F01CF88900013E00F007B800F009B843
:102170004FEA430C5FEA5C5C08D081EA030100F09F
:102180005BB84FEA410C5FEA5C5CF6D102494FF064
:10219000000070470000FF070000F87F0EF1020EFC
:1021A0002EF0030E5EF8046B364205D4012A43EB91
:1021B000030515F5001F12D8012841EB010C1CF591
:1021C000001F0CD80ED14FEAD17C0CEB4C0C0CF15B
:1021D000020C15F5001F08BF4CEBD37C04E04FF058
:1021E000080C01E04FEAD37C0CEB4C0526FA05F60F
:1021F00006F00706B6F1040C06D20EEB860CBDE81D
:1022000070404CF0010C6047DFE80CF0090B020253
:102210004FF00041A1F500214FF0000070BD1946BC
:102220001046012851EB010418BFD4F5001484BFF7
:10223000002001F0004170BD0808A0F500114FEA30
:10224000310170470102000000000000000001029F
:10225000030406070809000000000102030402034A
:102260000405060708090A0B0C0D0E0F10100000DC
:1022700090220008000000201000000094010008D7
:10228000A022000810000020F0060000B4010008A1
:1022900001000000100000000024F4000000000015
:0400000508000131BD
:00000001FF
